:020000040800F2
:1000000000000120650E00086D0400086F04000860
:100010007104000873040008750400080000000063
:10002000000000000000000000000000770400084D
:1000300079040008000000007B0400087D0400082B
:10004000B50E0008B50E0008B50E0008B50E000884
:10005000B50E0008B50E0008B50E0008B50E000874
:10006000B50E0008B50E0008B50E0008B50E000864
:10007000B50E0008B50E0008B50E0008B50E000854
:10008000B50E0008B50E0008B50E0008000000000F
:10009000000000000000000000000000B50E000895
:1000A000B50E0008B50E0008B50E0008B50E000824
:1000B000B50E0008B50E0008B50E0008B50E000814
:1000C000B50E0008B50E0008B50E0008B50E000804
:1000D000B50E0008B50E0008B50E000800000000BF
:1000E000B50E0008B50E0008B50E000800000000AF
:1000F000000000000000000000000000B50E000835
:1001000000000000B50E0008B50E0008B50E00088E
:1001100000000000000000000000000000000000DF
:10012000B50E0008B50E0008B50E0008B50E0008A3
:10013000B50E0008000000000000000000000000F4
:10014000000000000000000000000000B50E0008E4
:10015000B50E0008B50E0008B50E0008B50E000873
:10016000B50E0008B50E00080000000000000000F9
:10017000000000000000000000000000000000007F
:1001800000000000B50E00080000000000000000A4
:04019000B50E0008A0
:10019400830730B547D0541E002A3ED0CAB2034666
:1001A40001E0013C39D303F8012B9D07F9D1032C5D
:1001B4002CD9CDB205EB05250F2C05EB054535D91A
:1001C400A4F1100222F00F0C03F1100EE6444FEAE2
:1001D400121C1A46156055609560D5601032724540
:1001E400F8D10CF1010214F00C0F03EB021204F02D
:1001F4000F0C13D0ACF1040323F0030304331344B2
:1002040042F8045B9A42FBD10CF003042CB1C9B24E
:100214001C4403F8011B9C42FBD130BD64461346C9
:10022400002CF4D1F9E703461446C0E71A46A44665
:10023400E0E700BF70B50F4B0F4DAB42A3EB0506D3
:1002440007D0B610002455F8043B01349847A64261
:10025400F9D800F07FFF094D094B5E1BAB424FEA12
:10026400A60606D0002455F8043B01349847A6425C
:10027400F9D870BD88110008881100088811000899
:100284008C11000853B94AB9002908BF00281CBFC3
:100294004FF0FF314FF0FF3000F00CB8ADF1080C17
:1002A4006DE904CE00F005FEDDF804E0DDE902238B
:1002B40004B07047704700BF10B5054C237833B9BC
:1002C400044B13B10448AFF300800123237010BD25
:1002D4000C000020000000005811000808B5034B72
:1002E4001BB103490348AFF3008008BD00000000C0
:1002F400100000205811000830B589B00024039480
:1003040004940594069407940094194B1A6B42F0D4
:1003140004021A631A6B02F004020092009A019418
:100324001A6B42F080021A631A6B02F08002019287
:10033400019A02941A6B42F001021A631B6B03F0D8
:1003440001030293029B0B4D01224FF400512846F6
:1003540000F008FD4FF40053039301230493059424
:10036400069403A9284600F019FC09B030BD00BF6B
:10037400003802400008024072B6FEE700B595B0AE
:100384003022002108A8FFF703FF002303930493FE
:100394000593069307930193214A116C41F0805110
:1003A4001164126C02F080520192019A02931D4A68
:1003B400136823F4404343F400431360136803F4C5
:1003C40040430293029B012308934FF48033099323
:1003D40002230E934FF480030F93192310934FF4C9
:1003E400A8731193042312930723139308A800F00E
:1003F400D5F880B90F2303930221049100230593B8
:100404004FF480520692079303A800F017FB20B91B
:1004140015B05DF804FBFFF7AFFFFFF7ADFF00BFBA
:10042400003802400070004008B500F077F8FFF78C
:10043400A5FFFFF761FF0B4C00224FF4005120464B
:1004440000F090FC4FF4FA7000F094F801224FF49D
:100454000051204600F086FC4FF4FA7000F08AF850
:10046400E9E700BF00080240FEE7FEE7FEE7FEE71B
:10047400FEE770477047704708B500F069F808BD9B
:1004840010B582B000240094104B5A6C42F48042A0
:100494005A645A6C02F480420092009A01941A6CD5
:1004A40042F080521A641B6C03F080530193019B49
:1004B40022460F216FF0010000F0A0FC22460F211C
:1004C4004FF0FF3000F09AFC02B010BD003802403B
:1004D40010B504460E4B1A784FF47A73B3FBF2F35B
:1004E4000C4A1068B0FBF3F000F098FC68B90F2CCC
:1004F40001D901200AE0002221464FF0FF3000F02C
:100504007DFC054B1C60002000E0012010BD00BFF5
:1005140000000020080000200400002008B50B4B58
:100524001A6842F400721A601A6842F480621A600F
:100534001A6842F480721A60032000F04DFC0F2008
:10054400FFF7C6FFFFF79CFF002008BD003C0240F8
:10055400034A1168034B1B780B441360704700BFB8
:100564002800002000000020014B1868704700BFDD
:100574002800002038B50446FFF7F6FF0546B4F11D
:10058400FF3F02D0044B1B781C44FFF7EDFF401BD8
:10059400A042FAD338BD00BF00000020002800F0BC
:1005A400E08170B582B00446036813F0010F3BD0BC
:1005B4009F4B9B6803F00C03042B2CD09C4B9B6833
:1005C40003F00C03082B21D06368B3F5803F4FD0B0
:1005D400B3F5A02F52D0964B1A6822F480321A60D9
:1005E4001A6822F480221A606368002B50D0FFF747
:1005F400BBFF05468E4B1B6813F4003F14D1FFF775
:10060400B3FF401B6428F5D90320B1E1884B5B6834
:1006140013F4800FD8D0864B1B6813F4003F03D02B
:100624006368002B00F09F81236813F0020F54D0FD
:100634007F4B9B6813F00C0F3ED07D4B9B6803F0FF
:100644000C03082B33D0E368002B68D0794B0122CC
:100654001A60FFF789FF0546754B1B6813F0020FFC
:1006640054D1FFF781FF401B0228F5D903207FE115
:100674006F4A136843F480331360B5E76C4B1A6810
:1006840042F480221A601A6842F480321A60ABE79E
:10069400FFF76AFF0546664B1B6813F4003FC3D09F
:1006A400FFF762FF401B6428F5D9032060E1604B2B
:1006B4005B6813F4800FC6D15D4B1B6813F0020F07
:1006C40003D0E368012B40F05081594A136823F0AA
:1006D400F803216943EAC1031360236813F0080F88
:1006E40042D063696BB3534B0122C3F8802EFFF7EA
:1006F4003BFF05464E4B5B6F13F0020F34D1FFF7FF
:1007040033FF401B0228F5D9032031E1484A13681E
:1007140023F0F803216943EAC1031360DDE7454B85
:1007240000221A60FFF720FF0546414B1B6813F0B7
:10073400020FD2D0FFF718FF401B0228F5D903207F
:1007440016E13C4B0022C3F8802EFFF70DFF05464F
:10075400374B5B6F13F0020F06D0FFF705FF401B0A
:100764000228F5D9032003E1236813F0040F77D09E
:100774002F4B1B6C13F0805F33D1002301932C4B60
:100784001A6C42F080521A641B6C03F0805301937C
:10079400019B0125284B1B6813F4807F23D0A36899
:1007A400012B34D0052B38D0214B1A6F22F00102D3
:1007B4001A671A6F22F004021A67A368002B3DD04F
:1007C400FFF7D2FE06461A4B1B6F13F0020F46D1F9
:1007D400FFF7CAFE801B41F288339842F3D9032005
:1007E400C6E00025D6E7144A136843F48073136007
:1007F400FFF7BAFE0646104B1B6813F4807FCED178
:10080400FFF7B2FE801B0228F5D90320B0E0084AA6
:10081400136F43F001031367CFE7054B1A6F42F0E0
:1008240004021A671A6F42F001021A67C5E700BF93
:10083400003802400000474200700040FFF794FE79
:100844000646524B1B6F13F0020F08D0FFF78CFEC5
:10085400801B41F288339842F3D9032088E0EDB934
:10086400A369002B00F08380484A926802F00C02CE
:10087400082A51D0022B17D0454B00221A66FFF7E5
:1008840073FE0446414B1B6813F0007F42D0FFF710
:100894006BFE001B0228F5D9032069E03B4A136C68
:1008A40023F080531364DBE7394B00221A66FFF709
:1008B4005BFE0546354B1B6813F0007F06D0FFF73F
:1008C40053FE401B0228F5D9032051E0E369226A54
:1008D4001343626A43EA8213A26A5208013A43EA62
:1008E4000243E26A43EA0263284A5360284B012226
:1008F4001A66FFF739FE0446244B1B6813F0007F89
:1009040006D1FFF731FE001B0228F5D903202FE0A2
:1009140000202DE000202BE0012B2BD01B4B5B682B
:1009240003F48001E269914226D103F03F02216A77
:100934008A4223D1616A47F6C0721A40B2EB811F22
:100944001ED103F44031A26A5208013AB1EB024FBE
:1009540018D103F07063E26AB3EB026F14D1002084
:1009640006E001207047012002E0012000E00020A1
:1009740002B070BD0120FBE70120F9E70120F7E791
:100984000120F5E70120F3E70120F1E700380240F8
:100994000000474208B5264B9B6803F00C03042B68
:1009A40041D0082B41D1224B5A6802F03F025B68C8
:1009B40013F4800F12D01E4B5968C1F388111D48DF
:1009C4000023A1FB0001FFF75DFC194B5B68C3F337
:1009D400014301335B00B0FBF3F008BD144B5868CE
:1009E400C0F388104FEA401CBCEB000C6EEB0E0EFB
:1009F4004FEA8E1343EA9C634FEA8C11B1EB0C016E
:100A040063EB0E03DB0043EA5173C90011EB000CE6
:100A140043F10003990200234FEA8C2041EA9C51E0
:100A2400FFF730FCD1E70348D7E70348D5E700BF19
:100A34000038024040787D010024F400002800F0D2
:100A44009B8070B50D4604464F4B1B6803F00703AB
:100A54008B4208D2CBB24C4A1370136803F00703DD
:100A64008B4240F08B80236813F0020F17D013F0F1
:100A7400040F04D0454A936843F4E0539360236819
:100A840013F0080F04D0414A936843F46043936021
:100A94003E4A936823F0F003A1680B4393602368F4
:100AA40013F0010F32D06368012B21D09A1E012A62
:100AB40025D9364A126812F0020F61D033498A6888
:100AC40022F0030213438B60FFF74EFD06462F4BC3
:100AD4009B6803F00C036268B3EB820F16D0FFF738
:100AE40043FD801B41F288339842F0D9032042E051
:100AF400264A126812F4003FE0D101203BE0234A69
:100B0400126812F0007FD9D1012034E01E4B1B681B
:100B140003F00703AB4207D9EAB21B4B1A701B68F8
:100B240003F00703AB422DD1236813F0040F06D062
:100B3400164A936823F4E053E1680B4393602368F7
:100B440013F0080F07D0114A936823F46043216916
:100B540043EAC1039360FFF71DFF0C4B9B68C3F38B
:100B640003130B4AD35CD8400A4B18600A4B18682D
:100B7400FFF7AEFC002070BD012070470120FAE7AA
:100B84000120F8E70120F6E7003C0240003802406B
:100B940070110008080000200400002000230F2B1F
:100BA40000F2D78070B582B065E085684FEA430EE5
:100BB400032404FA0EF425EA0405CC6804FA0EF4BE
:100BC4002C438460446824EA02044A68C2F3001295
:100BD4009A40224342605CE0DC08083450F8242048
:100BE40003F00705AD004FF00F0E0EFA05FE22EAE2
:100BF4000E0E0A69AA4042EA0E0240F824205CE084
:100C0400042200E0002202FA0EF22A430234514D7B
:100C140045F82420504A94686FEA0C0224EA0C0533
:100C24004E6816F4801F01D04CEA04054A4CA560B6
:100C3400E46802EA04054E6816F4001F01D04CEA89
:100C44000405454CE560646802EA04054E6816F440
:100C5400003F01D04CEA04053F4C65602468224003
:100C64004D6815F4803F01D04CEA04023A4C2260EE
:100C740001330F2B6BD801229A400C6804EA020C52
:100C840032EA0404F4D14C6804F00304013C012C5E
:100C94008BD94A6802F00302032A09D0C4685D00B4
:100CA4000322AA4024EA02048A68AA402243C260BA
:100CB4004A6802F00302022A8ED004684FEA430E07
:100CC400032202FA0EF224EA02044A6802F0030242
:100CD40002FA0EF2224302604A6812F4403FC7D07F
:100CE400002201921D4A546C44F480445464526CB2
:100CF40002F480420192019A9C08A51C154A52F8FC
:100D0400255003F0030E4FEA8E0E0F2202FA0EF264
:100D140025EA0205124A90423FF474AF02F580625C
:100D240090420ED002F5806290420CD002F58062AF
:100D340090420AD002F5806290423FF461AF0722EC
:100D440061E701225FE702225DE703225BE702B06D
:100D540070BD704700380140003C0140003802403B
:100D6400000002400AB18161704709048161704743
:100D7400002808DB0901C9B200F1604000F56140B8
:100D840080F80013704700F00F000901C9B2014B4D
:100D94001954704714ED00E000B500F00700C0F1ED
:100DA400070CBCF1040F28BF4FF0040C031D062BE5
:100DB4000FD9C31E4FF0FF3E0EFA0CF021EA0001DA
:100DC40099400EFA03FE22EA0E0241EA02005DF89F
:100DD40004FB0023EEE70000074AD36823F4E06332
:100DE4001B041B0C000200F4E060034343F0BF63E8
:100DF40043F40033D360704700ED00E010B50446BF
:100E0400054BD868C0F30220FFF7C6FF0146204611
:100E1400FFF7AEFF10BD00BF00ED00E00138B0F1F8
:100E2400807F0BD24FF0E0235861054AF02182F80D
:100E340023100020986107221A617047012070472F
:100E440000ED00E0054BD3F8882042F47002C3F8AB
:100E540088204FF000629A60704700BF00ED00E008
:100E6400DFF834D0FFF7EEFF0C480D490D4A00239C
:100E740002E0D458C4500433C4188C42F9D30A4A4B
:100E84000A4C002301E013600432A242FBD3FFF7B3
:100E9400D1F9FFF7C9FA70470000012000000020D3
:100EA4000C000020901100080C0000202C000020F1
:100EB400FEE72DE9F04786468C460846089E15460F
:100EC40074461946002B40F0C2808542B2FA82F281
:100ED40045D94AB1C2F1200300FA02FC2EFA03F309
:100EE400954043EA0C0C94404FEA154EA8B2BCFB63
:100EF400FEF8230C0EFB18CC08FB00F943EA0C4364
:100F0400994528D9EB1808F1FF3704D2994502D93D
:100F1400A8F102072B44A3EB0903A4B2B3FBFEFC24
:100F24000EFB1C330CFB00F044EA0344A04214D92A
:100F34002C190CF1FF3304D2A04202D9ACF1020304
:100F44002C44241A43EA07401EB1D44000233460E1
:100F54007360BDE8F0874746DDE76346F1E792BB7F
:100F6400431B01214FEA154EAFB2B3FBFEFC200C2C
:100F74000EFB1C330CFB07F840EA0343984562D987
:100F8400EB180CF1FF3004D2984502D9ACF1020001
:100F94002B44A3EB0803A4B2B3FBFEFC0EFB1C33EF
:100FA4000CFB07F744EA0344A7424ED92C190CF171
:100FB400FF3304D2A74202D9ACF102032C44E41B50
:100FC40043EA0040C0E7C2F1200320FA03F1954050
:100FD40090402EFA03F303434FEA154EAFB2B1FB30
:100FE400FEFC0EFB1C10190C0CFB07F841EA004137
:100FF400884504FA02F422D969180CF1FF3004D2AE
:10100400884502D9ACF102002944A1EB08019BB246
:10101400B1FBFEFC0EFB1C110CFB07F743EA01437A
:101024009F420ED9EB180CF1FF3104D29F4202D932
:10103400ACF102012B44DB1B41EA004192E760461C
:10104400E3E76146F7E76046A3E76346B7E7834211
:1010540006D916B9002108467BE7C6E900E0F9E79E
:10106400B3FA83F78FB9834201D3724508D8BEEB34
:10107400020460EB030301209C461EB9002168E7CB
:101084003846FAE7C6E9004CF8E7C7F1200CBB4044
:1010940022FA0CF41C432EFA0CF120FA0CF3B8409B
:1010A40001434FEA14490EFA07F5B3FBF9F81FFAA6
:1010B40084FE09FB18300B0C08FB0EFA43EA0043CC
:1010C4009A4502FA07F240D9E31808F1FF3004D236
:1010D4009A4502D9A8F102002344A3EB0A0389B27A
:1010E400B3FBF9F809FB183308FB0EFE41EA034190
:1010F4008E452CD9611808F1FF3304D28E4502D9EC
:10110400A8F10203214443EA0040A0FB0298A1EBAA
:101114000E014145CE46434602D306D14D4504D285
:10112400B9EB020E68EB04030138002EA6D0B5EB30
:101134000E0261EB030101FA0CFC22FA07F34CEAFC
:101144000303F940C6E9003198E74046C5E7434642
:10115400D9E70000F8B500BFF8BC08BC9E4670474C
:0C116400F8B500BFF8BC08BC9E46704700
:101170000000000000000000010203040607080947
:0811800036FDFF7F01000000B5
:04118800E102000878
:04118C00BD02000898
:0C11900001000000100000000024F4002A
:0400000508000E657C
:00000001FF
